:100000000C9434000C9449000C9449000C94490061
:100010000C9449000C9449000C9449000C9449003C
:100020000C9449000C9449000C9449000C9449002C
:100030000C9449000C9449000C9449000C9449001C
:100040000C9449000C9449000C9449000C9449000C
:100050000C9449000C9449000C9449000C944900FC
:100060000C9449000C94490011241FBECFEFD8E036
:10007000DEBFCDBF11E0A0E0B1E0E6E1F4E002C0F8
:1000800005900D92A032B107D9F70E94AD010C94F2
:1000900009020C9400008BB98BB18E7F8BB98BB1A8
:1000A00082608BB982E090E00E94F7008BB18D7F77
:1000B0008BB908958BB98BB181608BB98BB182609C
:1000C0008BB982E090E00E94F7008BB18D7F8BB9F5
:1000D00008958FEF8AB984E190E00E94F70088E3E9
:1000E0000E944B008CE00E944B0086E00E944B0077
:1000F00081E00E944B0082E090E00E94F7000895AA
:10010000CF93DF93EC0103C021960E945A008881AF
:100110008111FACFDF91CF9108950F931F93CF9361
:10012000DF9300D000D000D0CDB7DEB7FC01892B23
:10013000A9F580E30E945A0045C09F01ADECBCECDC
:100140000E94FA019695879596958795969587953D
:100150009C01220F331F880F991F880F991F880F4A
:10016000991F820F931F9F01281B390BC901A1E022
:10017000B0E0AC0FBD1FA40FB51F805D8C939F0135
:10018000ADECBCEC0E94FA01FC01F695E795F69502
:10019000E795F695E7954F5F5F4F02C040E050E06E
:1001A000309759F60AC0E1E0F0E0EC0FFD1FE00FD8
:1001B000F11F80810E945A00A8018A010150110993
:1001C000452B89F726960FB6F894DEBF0FBECDBF3C
:1001D000DF91CF911F910F910895811103C080E8A5
:1001E000860F02C080EC860F0E944B00089540E00D
:1001F00050E00BC02F5F3F4F02C020E030E02034C2
:1002000066E03607B8F34F5F5F4F48175907A8F30A
:1002100008951092C50087E68093C40088E080931B
:10022000C10086E08093C20008959091C00095FFC0
:10023000FCCF8093C6000895CF93DF93EC0103C0F9
:1002400021960E94150188818111FACFDF91CF910B
:1002500008950F931F93CF93DF9300D000D000D069
:10026000CDB7DEB7FC01892BA9F580E30E9415010B
:1002700045C09F01ADECBCEC0E94FA0196958795B4
:1002800096958795969587959C01220F331F880F29
:10029000991F880F991F880F991F820F931F9F0125
:1002A000281B390BC901A1E0B0E0AC0FBD1FA40FA2
:1002B000B51F805D8C939F01ADECBCEC0E94FA01F0
:1002C000FC01F695E795F695E795F695E7954F5F6E
:1002D0005F4F02C040E050E0309759F60AC0E1E0BD
:1002E000F0E0EC0FFD1FE00FF11F80810E9415016F
:1002F000A8018A0101501109452B89F726960FB6EE
:10030000F894DEBF0FBECDBFDF91CF911F910F914B
:10031000089580E480937C0086E880937A000895B5
:10032000EAE7F0E080818064808380917A0086FD36
:10033000FCCF809178009091790008950E949001FF
:100340009C01A4EFB1E00E94FA012FEF33E040E0FE
:1003500050E00E94D801C90108950E9469000E94DE
:1003600009010E94890184B1816084B90E949E01C3
:10037000EC0160E080E00E94ED0080E091E00E94EE
:100380008000CE010E948D0087E091E00E948000F5
:100390008DE091E00E941C01CE010E9429018BE1B9
:1003A00091E00E941C0195B181E0892785B9DECFDB
:1003B000A1E21A2EAA1BBB1BFD010DC0AA1FBB1F69
:1003C000EE1FFF1FA217B307E407F50720F0A21BDB
:1003D000B30BE40BF50B661F771F881F991F1A9448
:1003E00069F760957095809590959B01AC01BD0172
:1003F000CF010895A29FB001B39FC001A39F700DCC
:10040000811D1124911DB29F700D811D1124911D1C
:060410000895F894FFCFEF
:1004160054656D703A200020432020200054656DFD
:1004260070657261747572653A200020430D0A008A
:00000001FF
